{
  "contractName": "Contract3",
  "abi": [
    {
      "inputs": [
        {
          "internalType": "uint256",
          "name": "_minValue",
          "type": "uint256"
        },
        {
          "internalType": "uint256",
          "name": "_maxValue",
          "type": "uint256"
        }
      ],
      "stateMutability": "nonpayable",
      "type": "constructor"
    },
    {
      "inputs": [],
      "name": "maxValue",
      "outputs": [
        {
          "internalType": "uint256",
          "name": "",
          "type": "uint256"
        }
      ],
      "stateMutability": "view",
      "type": "function",
      "constant": true
    },
    {
      "inputs": [],
      "name": "minValue",
      "outputs": [
        {
          "internalType": "uint256",
          "name": "",
          "type": "uint256"
        }
      ],
      "stateMutability": "view",
      "type": "function",
      "constant": true
    },
    {
      "inputs": [
        {
          "internalType": "uint256",
          "name": "_minValue",
          "type": "uint256"
        },
        {
          "internalType": "uint256",
          "name": "_maxValue",
          "type": "uint256"
        }
      ],
      "name": "setRange",
      "outputs": [],
      "stateMutability": "nonpayable",
      "type": "function"
    },
    {
      "inputs": [
        {
          "internalType": "uint256",
          "name": "value",
          "type": "uint256"
        }
      ],
      "name": "isWithinRange",
      "outputs": [
        {
          "internalType": "bool",
          "name": "",
          "type": "bool"
        }
      ],
      "stateMutability": "view",
      "type": "function",
      "constant": true
    }
  ],
  "bytecode": "0x608060405234801561001057600080fd5b506040516104ec3803806104ec833981810160405281019061003291906100c4565b808210610074576040517f08c379a000000000000000000000000000000000000000000000000000000000815260040161006b90610187565b60405180910390fd5b816000819055508060018190555050506101a7565b600080fd5b6000819050919050565b6100a18161008e565b81146100ac57600080fd5b50565b6000815190506100be81610098565b92915050565b600080604083850312156100db576100da610089565b5b60006100e9858286016100af565b92505060206100fa858286016100af565b9150509250929050565b600082825260208201905092915050565b7f6d696e56616c7565206d75737420626520736d616c6c6572207468616e206d6160008201527f7856616c75650000000000000000000000000000000000000000000000000000602082015250565b6000610171602683610104565b915061017c82610115565b604082019050919050565b600060208201905081810360008301526101a081610164565b9050919050565b610336806101b66000396000f3fe608060405234801561001057600080fd5b506004361061004c5760003560e01c806383ad45421461005157806394a5c2e41461006d578063963e63c71461008b578063a536a0d9146100a9575b600080fd5b61006b60048036038101906100669190610190565b6100d9565b005b61007561012d565b60405161008291906101df565b60405180910390f35b610093610133565b6040516100a091906101df565b60405180910390f35b6100c360048036038101906100be91906101fa565b610139565b6040516100d09190610242565b60405180910390f35b80821061011b576040517f08c379a0000000000000000000000000000000000000000000000000000000008152600401610112906102e0565b60405180910390fd5b81600081905550806001819055505050565b60015481565b60005481565b60008054821015801561014e57506001548211155b9050919050565b600080fd5b6000819050919050565b61016d8161015a565b811461017857600080fd5b50565b60008135905061018a81610164565b92915050565b600080604083850312156101a7576101a6610155565b5b60006101b58582860161017b565b92505060206101c68582860161017b565b9150509250929050565b6101d98161015a565b82525050565b60006020820190506101f460008301846101d0565b92915050565b6000602082840312156102105761020f610155565b5b600061021e8482850161017b565b91505092915050565b60008115159050919050565b61023c81610227565b82525050565b60006020820190506102576000830184610233565b92915050565b600082825260208201905092915050565b7f6d696e56616c7565206d75737420626520736d616c6c6572207468616e206d6160008201527f7856616c75650000000000000000000000000000000000000000000000000000602082015250565b60006102ca60268361025d565b91506102d58261026e565b604082019050919050565b600060208201905081810360008301526102f9816102bd565b905091905056fea2646970667358221220b6ede565f715bb504705ae6bee20db2b2d079259610ad3d7ad070f4ede5c733b64736f6c63430008120033",
  "immutableReferences": {},
  "source": "// SPDX-License-Identifier: MIT\npragma solidity >=0.4.22 <0.9.0;\n\ncontract Contract3 {\n    uint256 public minValue;\n    uint256 public maxValue;\n\n    constructor(uint256 _minValue, uint256 _maxValue) {\n        require(_minValue < _maxValue, \"minValue must be smaller than maxValue\");\n        minValue = _minValue;\n        maxValue = _maxValue;\n    }\n\n    function setRange(uint256 _minValue, uint256 _maxValue) public {\n        require(_minValue < _maxValue, \"minValue must be smaller than maxValue\");\n        minValue = _minValue;\n        maxValue = _maxValue;\n    }\n\n    function isWithinRange(uint256 value) public view returns (bool) {\n        return value >= minValue && value <= maxValue;\n    }\n}",
  "sourcePath": "/home/shivani/Desktop/DApp/truffle/contracts/Contract3.sol",
  "compiler": {
    "name": "solc",
    "version": "0.8.18+commit.87f61d96.Emscripten.clang"
  },
  "schemaVersion": "3.4.13",
  "updatedAt": "2023-04-17T14:09:51.847Z",
  "networkType": "ethereum",
  "devdoc": {
    "kind": "dev",
    "methods": {},
    "version": 1
  },
  "userdoc": {
    "kind": "user",
    "methods": {},
    "version": 1
  }
}