{
  "contractName": "Contract2",
  "abi": [
    {
      "inputs": [
        {
          "internalType": "uint256",
          "name": "initialCounter",
          "type": "uint256"
        }
      ],
      "stateMutability": "nonpayable",
      "type": "constructor"
    },
    {
      "inputs": [],
      "name": "counter",
      "outputs": [
        {
          "internalType": "uint256",
          "name": "",
          "type": "uint256"
        }
      ],
      "stateMutability": "view",
      "type": "function",
      "constant": true
    },
    {
      "inputs": [],
      "name": "increment",
      "outputs": [],
      "stateMutability": "nonpayable",
      "type": "function"
    },
    {
      "inputs": [],
      "name": "decrement",
      "outputs": [],
      "stateMutability": "nonpayable",
      "type": "function"
    },
    {
      "inputs": [],
      "name": "getCounter",
      "outputs": [
        {
          "internalType": "uint256",
          "name": "",
          "type": "uint256"
        }
      ],
      "stateMutability": "view",
      "type": "function",
      "constant": true
    }
  ],
  "bytecode": "0x608060405234801561001057600080fd5b506040516102a23803806102a28339818101604052810190610032919061007a565b80600081905550506100a7565b600080fd5b6000819050919050565b61005781610044565b811461006257600080fd5b50565b6000815190506100748161004e565b92915050565b6000602082840312156100905761008f61003f565b5b600061009e84828501610065565b91505092915050565b6101ec806100b66000396000f3fe608060405234801561001057600080fd5b506004361061004c5760003560e01c80632baeceb71461005157806361bc221a1461005b5780638ada066e14610079578063d09de08a14610097575b600080fd5b6100596100a1565b005b6100636100ba565b60405161007091906100fb565b60405180910390f35b6100816100c0565b60405161008e91906100fb565b60405180910390f35b61009f6100c9565b005b6000808154809291906100b390610145565b9190505550565b60005481565b60008054905090565b6000808154809291906100db9061016e565b9190505550565b6000819050919050565b6100f5816100e2565b82525050565b600060208201905061011060008301846100ec565b92915050565b7f4e487b7100000000000000000000000000000000000000000000000000000000600052601160045260246000fd5b6000610150826100e2565b91506000820361016357610162610116565b5b600182039050919050565b6000610179826100e2565b91507fffffffffffffffffffffffffffffffffffffffffffffffffffffffffffffffff82036101ab576101aa610116565b5b60018201905091905056fea26469706673582212204a3b6f3dd0a45ea763511c83fcb9a34ca9aeb6f2407b446eccc97414da2be23364736f6c63430008120033",
  "immutableReferences": {},
  "source": "// SPDX-License-Identifier: MIT\npragma solidity >=0.4.22 <0.9.0;\n\n\ncontract Contract2 {\n    uint256 public counter;\n\n    constructor(uint256 initialCounter) {\n        counter = initialCounter;\n    }\n\n    function increment() public {\n        counter++;\n    }\n\n    function decrement() public {\n        counter--;\n    }\n\n    function getCounter() public view returns (uint256) {\n        return counter;\n    }\n}\n",
  "sourcePath": "/home/shivani/Desktop/DApp/truffle/contracts/Contract2.sol",
  "compiler": {
    "name": "solc",
    "version": "0.8.18+commit.87f61d96.Emscripten.clang"
  },
  "schemaVersion": "3.4.13",
  "updatedAt": "2023-04-28T12:11:49.606Z",
  "networkType": "ethereum",
  "devdoc": {
    "kind": "dev",
    "methods": {},
    "version": 1
  },
  "userdoc": {
    "kind": "user",
    "methods": {},
    "version": 1
  }
}