{
  "contractName": "UserList",
  "abi": [
    {
      "inputs": [],
      "name": "userCount",
      "outputs": [
        {
          "internalType": "uint256",
          "name": "",
          "type": "uint256"
        }
      ],
      "stateMutability": "view",
      "type": "function",
      "constant": true
    },
    {
      "inputs": [
        {
          "internalType": "uint256",
          "name": "",
          "type": "uint256"
        }
      ],
      "name": "users",
      "outputs": [
        {
          "internalType": "uint256",
          "name": "id",
          "type": "uint256"
        },
        {
          "internalType": "string",
          "name": "name",
          "type": "string"
        }
      ],
      "stateMutability": "view",
      "type": "function",
      "constant": true
    },
    {
      "inputs": [
        {
          "internalType": "string",
          "name": "_name",
          "type": "string"
        }
      ],
      "name": "addUser",
      "outputs": [],
      "stateMutability": "nonpayable",
      "type": "function"
    },
    {
      "inputs": [
        {
          "internalType": "uint256",
          "name": "_id",
          "type": "uint256"
        },
        {
          "internalType": "string",
          "name": "_name",
          "type": "string"
        }
      ],
      "name": "updateUser",
      "outputs": [],
      "stateMutability": "nonpayable",
      "type": "function"
    }
  ],
  "bytecode": "0x608060405234801561001057600080fd5b50610991806100206000396000f3fe608060405234801561001057600080fd5b506004361061004c5760003560e01c806307973ccf1461005157806318b8275a1461006f578063365b98b21461008b578063d85340e7146100bc575b600080fd5b6100596100d8565b6040516100669190610278565b60405180910390f35b610089600480360381019061008491906103ed565b6100de565b005b6100a560048036038101906100a09190610462565b610147565b6040516100b392919061050e565b60405180910390f35b6100d660048036038101906100d1919061053e565b6101f3565b005b60015481565b600160008154809291906100f1906105c9565b919050555060405180604001604052806001548152602001828152506000806001548152602001908152602001600020600082015181600001556020820151816001019081610140919061081d565b5090505050565b600060205280600052604060002060009150905080600001549080600101805461017090610640565b80601f016020809104026020016040519081016040528092919081815260200182805461019c90610640565b80156101e95780601f106101be576101008083540402835291602001916101e9565b820191906000526020600020905b8154815290600101906020018083116101cc57829003601f168201915b5050505050905082565b600154821115610238576040517f08c379a000000000000000000000000000000000000000000000000000000000815260040161022f9061093b565b60405180910390fd5b80600080848152602001908152602001600020600101908161025a919061081d565b505050565b6000819050919050565b6102728161025f565b82525050565b600060208201905061028d6000830184610269565b92915050565b6000604051905090565b600080fd5b600080fd5b600080fd5b600080fd5b6000601f19601f8301169050919050565b7f4e487b7100000000000000000000000000000000000000000000000000000000600052604160045260246000fd5b6102fa826102b1565b810181811067ffffffffffffffff82111715610319576103186102c2565b5b80604052505050565b600061032c610293565b905061033882826102f1565b919050565b600067ffffffffffffffff821115610358576103576102c2565b5b610361826102b1565b9050602081019050919050565b82818337600083830152505050565b600061039061038b8461033d565b610322565b9050828152602081018484840111156103ac576103ab6102ac565b5b6103b784828561036e565b509392505050565b600082601f8301126103d4576103d36102a7565b5b81356103e484826020860161037d565b91505092915050565b6000602082840312156104035761040261029d565b5b600082013567ffffffffffffffff811115610421576104206102a2565b5b61042d848285016103bf565b91505092915050565b61043f8161025f565b811461044a57600080fd5b50565b60008135905061045c81610436565b92915050565b6000602082840312156104785761047761029d565b5b60006104868482850161044d565b91505092915050565b600081519050919050565b600082825260208201905092915050565b60005b838110156104c95780820151818401526020810190506104ae565b60008484015250505050565b60006104e08261048f565b6104ea818561049a565b93506104fa8185602086016104ab565b610503816102b1565b840191505092915050565b60006040820190506105236000830185610269565b818103602083015261053581846104d5565b90509392505050565b600080604083850312156105555761055461029d565b5b60006105638582860161044d565b925050602083013567ffffffffffffffff811115610584576105836102a2565b5b610590858286016103bf565b9150509250929050565b7f4e487b7100000000000000000000000000000000000000000000000000000000600052601160045260246000fd5b60006105d48261025f565b91507fffffffffffffffffffffffffffffffffffffffffffffffffffffffffffffffff82036106065761060561059a565b5b600182019050919050565b7f4e487b7100000000000000000000000000000000000000000000000000000000600052602260045260246000fd5b6000600282049050600182168061065857607f821691505b60208210810361066b5761066a610611565b5b50919050565b60008190508160005260206000209050919050565b60006020601f8301049050919050565b600082821b905092915050565b6000600883026106d37fffffffffffffffffffffffffffffffffffffffffffffffffffffffffffffffff82610696565b6106dd8683610696565b95508019841693508086168417925050509392505050565b6000819050919050565b600061071a6107156107108461025f565b6106f5565b61025f565b9050919050565b6000819050919050565b610734836106ff565b61074861074082610721565b8484546106a3565b825550505050565b600090565b61075d610750565b61076881848461072b565b505050565b5b8181101561078c57610781600082610755565b60018101905061076e565b5050565b601f8211156107d1576107a281610671565b6107ab84610686565b810160208510156107ba578190505b6107ce6107c685610686565b83018261076d565b50505b505050565b600082821c905092915050565b60006107f4600019846008026107d6565b1980831691505092915050565b600061080d83836107e3565b9150826002028217905092915050565b6108268261048f565b67ffffffffffffffff81111561083f5761083e6102c2565b5b6108498254610640565b610854828285610790565b600060209050601f8311600181146108875760008415610875578287015190505b61087f8582610801565b8655506108e7565b601f19841661089586610671565b60005b828110156108bd57848901518255600182019150602085019450602081019050610898565b868310156108da57848901516108d6601f8916826107e3565b8355505b6001600288020188555050505b505050505050565b7f55736572206e6f7420666f756e64000000000000000000000000000000000000600082015250565b6000610925600e8361049a565b9150610930826108ef565b602082019050919050565b6000602082019050818103600083015261095481610918565b905091905056fea2646970667358221220c6de70f223f382c4554942b424ea3d68e7d623f0d941bed1628009c986bed7da64736f6c63430008120033",
  "immutableReferences": {},
  "source": "// SPDX-License-Identifier: MIT\n\npragma solidity ^0.8.0;\n\ncontract UserList {\n  struct User {\n    uint id;\n    string name;\n  }\n\n  mapping(uint => User) public users;\n  uint public userCount;\n\n  function addUser(string memory _name) public {\n    userCount++;\n    users[userCount] = User(userCount, _name);\n  }\n\n  function updateUser(uint _id, string memory _name) public {\n    require(_id <= userCount, \"User not found\");\n    users[_id].name = _name;\n  }\n}\n",
  "sourcePath": "/home/shivani/Desktop/DApp-react-truffle-ganache/app/truffle/contracts/UserList.sol",
  "compiler": {
    "name": "solc",
    "version": "0.8.18+commit.87f61d96.Emscripten.clang"
  },
  "schemaVersion": "3.4.13",
  "updatedAt": "2023-04-01T07:44:24.301Z",
  "networkType": "ethereum",
  "devdoc": {
    "kind": "dev",
    "methods": {},
    "version": 1
  },
  "userdoc": {
    "kind": "user",
    "methods": {},
    "version": 1
  }
}